{
  "contractName": "ExpiryExpert",
  "abi": [
    {
      "anonymous": false,
      "inputs": [
        {
          "indexed": false,
          "internalType": "uint256",
          "name": "productId",
          "type": "uint256"
        },
        {
          "indexed": false,
          "internalType": "string",
          "name": "name",
          "type": "string"
        },
        {
          "indexed": false,
          "internalType": "uint256",
          "name": "expiryDate",
          "type": "uint256"
        },
        {
          "indexed": false,
          "internalType": "address",
          "name": "owner",
          "type": "address"
        }
      ],
      "name": "ProductAdded",
      "type": "event"
    },
    {
      "anonymous": false,
      "inputs": [
        {
          "indexed": false,
          "internalType": "uint256",
          "name": "productId",
          "type": "uint256"
        }
      ],
      "name": "ProductDeleted",
      "type": "event"
    },
    {
      "anonymous": false,
      "inputs": [
        {
          "indexed": false,
          "internalType": "uint256",
          "name": "productId",
          "type": "uint256"
        },
        {
          "indexed": false,
          "internalType": "string",
          "name": "name",
          "type": "string"
        },
        {
          "indexed": false,
          "internalType": "uint256",
          "name": "expiryDate",
          "type": "uint256"
        }
      ],
      "name": "ProductEdited",
      "type": "event"
    },
    {
      "anonymous": false,
      "inputs": [
        {
          "indexed": false,
          "internalType": "uint256",
          "name": "productId",
          "type": "uint256"
        },
        {
          "indexed": false,
          "internalType": "string",
          "name": "name",
          "type": "string"
        },
        {
          "indexed": false,
          "internalType": "uint256",
          "name": "expiryDate",
          "type": "uint256"
        },
        {
          "indexed": false,
          "internalType": "address",
          "name": "owner",
          "type": "address"
        }
      ],
      "name": "ProductExpired",
      "type": "event"
    },
    {
      "anonymous": false,
      "inputs": [
        {
          "indexed": false,
          "internalType": "uint256",
          "name": "productId",
          "type": "uint256"
        },
        {
          "indexed": false,
          "internalType": "address",
          "name": "from",
          "type": "address"
        },
        {
          "indexed": false,
          "internalType": "address",
          "name": "to",
          "type": "address"
        }
      ],
      "name": "ProductTransferred",
      "type": "event"
    },
    {
      "inputs": [],
      "name": "productCount",
      "outputs": [
        {
          "internalType": "uint256",
          "name": "",
          "type": "uint256"
        }
      ],
      "stateMutability": "view",
      "type": "function",
      "constant": true
    },
    {
      "inputs": [
        {
          "internalType": "uint256",
          "name": "",
          "type": "uint256"
        }
      ],
      "name": "products",
      "outputs": [
        {
          "internalType": "string",
          "name": "name",
          "type": "string"
        },
        {
          "internalType": "uint256",
          "name": "expiryDate",
          "type": "uint256"
        },
        {
          "internalType": "address",
          "name": "owner",
          "type": "address"
        }
      ],
      "stateMutability": "view",
      "type": "function",
      "constant": true
    },
    {
      "inputs": [
        {
          "internalType": "string",
          "name": "_name",
          "type": "string"
        },
        {
          "internalType": "uint256",
          "name": "_expiryDate",
          "type": "uint256"
        },
        {
          "internalType": "address",
          "name": "_owner",
          "type": "address"
        }
      ],
      "name": "addProduct",
      "outputs": [],
      "stateMutability": "nonpayable",
      "type": "function"
    },
    {
      "inputs": [
        {
          "internalType": "uint256",
          "name": "_productId",
          "type": "uint256"
        },
        {
          "internalType": "string",
          "name": "_name",
          "type": "string"
        },
        {
          "internalType": "uint256",
          "name": "_expiryDate",
          "type": "uint256"
        }
      ],
      "name": "editProduct",
      "outputs": [],
      "stateMutability": "nonpayable",
      "type": "function"
    },
    {
      "inputs": [
        {
          "internalType": "uint256",
          "name": "_productId",
          "type": "uint256"
        },
        {
          "internalType": "address",
          "name": "_newOwner",
          "type": "address"
        }
      ],
      "name": "transferProduct",
      "outputs": [],
      "stateMutability": "nonpayable",
      "type": "function"
    },
    {
      "inputs": [
        {
          "internalType": "uint256",
          "name": "_productId",
          "type": "uint256"
        }
      ],
      "name": "checkExpiry",
      "outputs": [],
      "stateMutability": "nonpayable",
      "type": "function"
    },
    {
      "inputs": [
        {
          "internalType": "uint256",
          "name": "_productId",
          "type": "uint256"
        }
      ],
      "name": "deleteProduct",
      "outputs": [],
      "stateMutability": "nonpayable",
      "type": "function"
    }
  ],
  "bytecode": "0x608060405234801561001057600080fd5b50611286806100206000396000f3fe608060405234801561001057600080fd5b506004361061007d5760003560e01c8063e0f6ef871161005b578063e0f6ef87146100ec578063e43059e51461010a578063e4357cd714610126578063ed90c7b7146101425761007d565b80637acc0b2014610082578063a575b6c5146100b4578063a8ff20f9146100d0575b600080fd5b61009c60048036038101906100979190610a9e565b61015e565b6040516100ab93929190610df3565b60405180910390f35b6100ce60048036038101906100c99190610b03565b610230565b005b6100ea60048036038101906100e59190610a37565b61038c565b005b6100f461049e565b6040516101019190610ed1565b60405180910390f35b610124600480360381019061011f9190610ac7565b6104a4565b005b610140600480360381019061013b9190610a9e565b610620565b005b61015c60048036038101906101579190610a9e565b61073a565b005b600060205280600052604060002060009150905080600001805461018190611109565b80601f01602080910402602001604051908101604052809291908181526020018280546101ad90611109565b80156101fa5780601f106101cf576101008083540402835291602001916101fa565b820191906000526020600020905b8154815290600101906020018083116101dd57829003601f168201915b5050505050908060010154908060020160009054906101000a900473ffffffffffffffffffffffffffffffffffffffff16905083565b60008311801561024257506001548311155b610281576040517f08c379a000000000000000000000000000000000000000000000000000000000815260040161027890610e31565b60405180910390fd5b600080600085815260200190815260200160002090503373ffffffffffffffffffffffffffffffffffffffff168160020160009054906101000a900473ffffffffffffffffffffffffffffffffffffffff1673ffffffffffffffffffffffffffffffffffffffff1614610329576040517f08c379a000000000000000000000000000000000000000000000000000000000815260040161032090610e51565b60405180910390fd5b828160000190805190602001906103419291906108c2565b508181600101819055507f769533739396ed8f6057decc219e56dc76532a931f14a4f8940c0c507d3e846084848460405161037e93929190610f23565b60405180910390a150505050565b6001600081548092919061039f9061113b565b919050555060405180606001604052808481526020018381526020018273ffffffffffffffffffffffffffffffffffffffff16815250600080600154815260200190815260200160002060008201518160000190805190602001906104059291906108c2565b506020820151816001015560408201518160020160006101000a81548173ffffffffffffffffffffffffffffffffffffffff021916908373ffffffffffffffffffffffffffffffffffffffff1602179055509050507f52402cafb2ecec722b103e8f203f83362148c168659dc96678c2c6850d12dd9f6001548484846040516104919493929190610f61565b60405180910390a1505050565b60015481565b6000821180156104b657506001548211155b6104f5576040517f08c379a00000000000000000000000000000000000000000000000000000000081526004016104ec90610e31565b60405180910390fd5b600080600084815260200190815260200160002090503373ffffffffffffffffffffffffffffffffffffffff168160020160009054906101000a900473ffffffffffffffffffffffffffffffffffffffff1673ffffffffffffffffffffffffffffffffffffffff161461059d576040517f08c379a000000000000000000000000000000000000000000000000000000000815260040161059490610e71565b60405180910390fd5b818160020160006101000a81548173ffffffffffffffffffffffffffffffffffffffff021916908373ffffffffffffffffffffffffffffffffffffffff1602179055507fcef86d37ba3dc1d682967cde44d8050488734bf53166725b220b4d2e515e9e9383338460405161061393929190610eec565b60405180910390a1505050565b60008111801561063257506001548111155b610671576040517f08c379a000000000000000000000000000000000000000000000000000000000815260040161066890610e31565b60405180910390fd5b6000806000838152602001908152602001600020905080600101544210156106ce576040517f08c379a00000000000000000000000000000000000000000000000000000000081526004016106c590610e91565b60405180910390fd5b7feabddbaefc8037afb77abd564192fb668d8337900b5c7e6a500d089686404861828260000183600101548460020160009054906101000a900473ffffffffffffffffffffffffffffffffffffffff1660405161072e9493929190610fad565b60405180910390a15050565b60008111801561074c57506001548111155b61078b576040517f08c379a000000000000000000000000000000000000000000000000000000000815260040161078290610e31565b60405180910390fd5b600080600083815260200190815260200160002090503373ffffffffffffffffffffffffffffffffffffffff168160020160009054906101000a900473ffffffffffffffffffffffffffffffffffffffff1673ffffffffffffffffffffffffffffffffffffffff1614610833576040517f08c379a000000000000000000000000000000000000000000000000000000000815260040161082a90610eb1565b60405180910390fd5b600080838152602001908152602001600020600080820160006108569190610948565b60018201600090556002820160006101000a81549073ffffffffffffffffffffffffffffffffffffffff021916905550507fc341cf326465fe622f86c468249e8c0cb03ed23ba376a6a34863a1374ac7d769826040516108b69190610ed1565b60405180910390a15050565b8280546108ce90611109565b90600052602060002090601f0160209004810192826108f05760008555610937565b82601f1061090957805160ff1916838001178555610937565b82800160010185558215610937579182015b8281111561093657825182559160200191906001019061091b565b5b5090506109449190610988565b5090565b50805461095490611109565b6000825580601f106109665750610985565b601f0160209004906000526020600020908101906109849190610988565b5b50565b5b808211156109a1576000816000905550600101610989565b5090565b60006109b86109b38461102a565b610ff9565b9050828152602081018484840111156109d057600080fd5b6109db8482856110c7565b509392505050565b6000813590506109f281611222565b92915050565b600082601f830112610a0957600080fd5b8135610a198482602086016109a5565b91505092915050565b600081359050610a3181611239565b92915050565b600080600060608486031215610a4c57600080fd5b600084013567ffffffffffffffff811115610a6657600080fd5b610a72868287016109f8565b9350506020610a8386828701610a22565b9250506040610a94868287016109e3565b9150509250925092565b600060208284031215610ab057600080fd5b6000610abe84828501610a22565b91505092915050565b60008060408385031215610ada57600080fd5b6000610ae885828601610a22565b9250506020610af9858286016109e3565b9150509250929050565b600080600060608486031215610b1857600080fd5b6000610b2686828701610a22565b935050602084013567ffffffffffffffff811115610b4357600080fd5b610b4f868287016109f8565b9250506040610b6086828701610a22565b9150509250925092565b610b738161108b565b82525050565b6000610b848261106f565b610b8e818561107a565b9350610b9e8185602086016110d6565b610ba781611211565b840191505092915050565b60008154610bbf81611109565b610bc9818661107a565b94506001821660008114610be45760018114610bf657610c29565b60ff1983168652602086019350610c29565b610bff8561105a565b60005b83811015610c2157815481890152600182019150602081019050610c02565b808801955050505b50505092915050565b6000610c3f60178361107a565b91507f50726f6475637420646f6573206e6f742065786973742e0000000000000000006000830152602082019050919050565b6000610c7f60248361107a565b91507f4f6e6c7920746865206f776e65722063616e2065646974207468652070726f6460008301527f7563742e000000000000000000000000000000000000000000000000000000006020830152604082019050919050565b6000610ce560288361107a565b91507f4f6e6c7920746865206f776e65722063616e207472616e73666572207468652060008301527f70726f647563742e0000000000000000000000000000000000000000000000006020830152604082019050919050565b6000610d4b601c8361107a565b91507f50726f6475637420686173206e6f742065787069726564207965742e000000006000830152602082019050919050565b6000610d8b60268361107a565b91507f4f6e6c7920746865206f776e65722063616e2064656c6574652074686520707260008301527f6f647563742e00000000000000000000000000000000000000000000000000006020830152604082019050919050565b610ded816110bd565b82525050565b60006060820190508181036000830152610e0d8186610b79565b9050610e1c6020830185610de4565b610e296040830184610b6a565b949350505050565b60006020820190508181036000830152610e4a81610c32565b9050919050565b60006020820190508181036000830152610e6a81610c72565b9050919050565b60006020820190508181036000830152610e8a81610cd8565b9050919050565b60006020820190508181036000830152610eaa81610d3e565b9050919050565b60006020820190508181036000830152610eca81610d7e565b9050919050565b6000602082019050610ee66000830184610de4565b92915050565b6000606082019050610f016000830186610de4565b610f0e6020830185610b6a565b610f1b6040830184610b6a565b949350505050565b6000606082019050610f386000830186610de4565b8181036020830152610f4a8185610b79565b9050610f596040830184610de4565b949350505050565b6000608082019050610f766000830187610de4565b8181036020830152610f888186610b79565b9050610f976040830185610de4565b610fa46060830184610b6a565b95945050505050565b6000608082019050610fc26000830187610de4565b8181036020830152610fd48186610bb2565b9050610fe36040830185610de4565b610ff06060830184610b6a565b95945050505050565b6000604051905081810181811067ffffffffffffffff821117156110205761101f6111e2565b5b8060405250919050565b600067ffffffffffffffff821115611045576110446111e2565b5b601f19601f8301169050602081019050919050565b60008190508160005260206000209050919050565b600081519050919050565b600082825260208201905092915050565b60006110968261109d565b9050919050565b600073ffffffffffffffffffffffffffffffffffffffff82169050919050565b6000819050919050565b82818337600083830152505050565b60005b838110156110f45780820151818401526020810190506110d9565b83811115611103576000848401525b50505050565b6000600282049050600182168061112157607f821691505b60208210811415611135576111346111b3565b5b50919050565b6000611146826110bd565b91507fffffffffffffffffffffffffffffffffffffffffffffffffffffffffffffffff82141561117957611178611184565b5b600182019050919050565b7f4e487b7100000000000000000000000000000000000000000000000000000000600052601160045260246000fd5b7f4e487b7100000000000000000000000000000000000000000000000000000000600052602260045260246000fd5b7f4e487b7100000000000000000000000000000000000000000000000000000000600052604160045260246000fd5b6000601f19601f8301169050919050565b61122b8161108b565b811461123657600080fd5b50565b611242816110bd565b811461124d57600080fd5b5056fea264697066735822122030610f3cbf837cbde4062dc530b6e078c5074853ffc130e15846b64a3d990efc64736f6c63430008000033",
  "immutableReferences": {},
  "source": "// SPDX-License-Identifier: MIT\r\npragma solidity ^0.8.0;\r\n\r\ncontract ExpiryExpert {\r\n    struct Product {\r\n        string name;\r\n        uint256 expiryDate; // Unix timestamp of expiry date\r\n        address owner;\r\n    }\r\n\r\n    mapping(uint256 => Product) public products;\r\n    uint256 public productCount;\r\n\r\n    event ProductAdded(uint256 productId, string name, uint256 expiryDate, address owner);\r\n    event ProductEdited(uint256 productId, string name, uint256 expiryDate);\r\n    event ProductTransferred(uint256 productId, address from, address to);\r\n    event ProductExpired(uint256 productId, string name, uint256 expiryDate, address owner);\r\n    event ProductDeleted(uint256 productId);\r\n\r\n    function addProduct(string memory _name, uint256 _expiryDate, address _owner) public {\r\n        productCount++;\r\n        products[productCount] = Product(_name, _expiryDate, _owner);\r\n        emit ProductAdded(productCount, _name, _expiryDate, _owner);\r\n    }\r\n\r\n    function editProduct(uint256 _productId, string memory _name, uint256 _expiryDate) public {\r\n        require(_productId > 0 && _productId <= productCount, \"Product does not exist.\");\r\n        Product storage product = products[_productId];\r\n        require(product.owner == msg.sender, \"Only the owner can edit the product.\");\r\n        product.name = _name;\r\n        product.expiryDate = _expiryDate;\r\n        emit ProductEdited(_productId, _name, _expiryDate);\r\n    }\r\n\r\n    function transferProduct(uint256 _productId, address _newOwner) public {\r\n        require(_productId > 0 && _productId <= productCount, \"Product does not exist.\");\r\n        Product storage product = products[_productId];\r\n        require(product.owner == msg.sender, \"Only the owner can transfer the product.\");\r\n        product.owner = _newOwner;\r\n        emit ProductTransferred(_productId, msg.sender, _newOwner);\r\n    }\r\n\r\n    function checkExpiry(uint256 _productId) public {\r\n        require(_productId > 0 && _productId <= productCount, \"Product does not exist.\");\r\n        Product storage product = products[_productId];\r\n        require(block.timestamp >= product.expiryDate, \"Product has not expired yet.\");\r\n        emit ProductExpired(_productId, product.name, product.expiryDate, product.owner);\r\n    }\r\n\r\n    function deleteProduct(uint256 _productId) public {\r\n        require(_productId > 0 && _productId <= productCount, \"Product does not exist.\");\r\n        Product storage product = products[_productId];\r\n        require(product.owner == msg.sender, \"Only the owner can delete the product.\");\r\n        delete products[_productId];\r\n        emit ProductDeleted(_productId);\r\n    }\r\n}\r\n",
  "sourcePath": "C:\\Expiry\\Blockchain\\expiry-expert-blockchain\\contracts\\ExpiryExpert.sol",
  "compiler": {
    "name": "solc",
    "version": "0.8.0+commit.c7dfd78e.Emscripten.clang"
  },
  "schemaVersion": "3.4.16",
  "updatedAt": "2024-07-29T12:30:23.265Z",
  "networkType": "ethereum",
  "devdoc": {
    "kind": "dev",
    "methods": {},
    "version": 1
  },
  "userdoc": {
    "kind": "user",
    "methods": {},
    "version": 1
  }
}