{
  "contractName": "ExpiryExpert",
  "abi": [
    {
      "anonymous": false,
      "inputs": [
        {
          "indexed": false,
          "internalType": "uint256",
          "name": "productId",
          "type": "uint256"
        },
        {
          "indexed": false,
          "internalType": "string",
          "name": "name",
          "type": "string"
        },
        {
          "indexed": false,
          "internalType": "uint256",
          "name": "expiryDate",
          "type": "uint256"
        },
        {
          "indexed": false,
          "internalType": "address",
          "name": "owner",
          "type": "address"
        }
      ],
      "name": "ProductAdded",
      "type": "event"
    },
    {
      "anonymous": false,
      "inputs": [
        {
          "indexed": false,
          "internalType": "uint256",
          "name": "productId",
          "type": "uint256"
        }
      ],
      "name": "ProductDeleted",
      "type": "event"
    },
    {
      "anonymous": false,
      "inputs": [
        {
          "indexed": false,
          "internalType": "uint256",
          "name": "productId",
          "type": "uint256"
        },
        {
          "indexed": false,
          "internalType": "string",
          "name": "name",
          "type": "string"
        },
        {
          "indexed": false,
          "internalType": "uint256",
          "name": "expiryDate",
          "type": "uint256"
        }
      ],
      "name": "ProductEdited",
      "type": "event"
    },
    {
      "anonymous": false,
      "inputs": [
        {
          "indexed": false,
          "internalType": "uint256",
          "name": "productId",
          "type": "uint256"
        },
        {
          "indexed": false,
          "internalType": "string",
          "name": "name",
          "type": "string"
        },
        {
          "indexed": false,
          "internalType": "uint256",
          "name": "expiryDate",
          "type": "uint256"
        },
        {
          "indexed": false,
          "internalType": "address",
          "name": "owner",
          "type": "address"
        }
      ],
      "name": "ProductExpired",
      "type": "event"
    },
    {
      "anonymous": false,
      "inputs": [
        {
          "indexed": false,
          "internalType": "uint256",
          "name": "productId",
          "type": "uint256"
        },
        {
          "indexed": false,
          "internalType": "address",
          "name": "from",
          "type": "address"
        },
        {
          "indexed": false,
          "internalType": "address",
          "name": "to",
          "type": "address"
        }
      ],
      "name": "ProductTransferred",
      "type": "event"
    },
    {
      "inputs": [],
      "name": "productCount",
      "outputs": [
        {
          "internalType": "uint256",
          "name": "",
          "type": "uint256"
        }
      ],
      "stateMutability": "view",
      "type": "function",
      "constant": true
    },
    {
      "inputs": [
        {
          "internalType": "uint256",
          "name": "",
          "type": "uint256"
        }
      ],
      "name": "products",
      "outputs": [
        {
          "internalType": "string",
          "name": "name",
          "type": "string"
        },
        {
          "internalType": "uint256",
          "name": "expiryDate",
          "type": "uint256"
        }
      ],
      "stateMutability": "view",
      "type": "function",
      "constant": true
    },
    {
      "inputs": [
        {
          "internalType": "address",
          "name": "",
          "type": "address"
        },
        {
          "internalType": "uint256",
          "name": "",
          "type": "uint256"
        }
      ],
      "name": "userProducts",
      "outputs": [
        {
          "internalType": "string",
          "name": "name",
          "type": "string"
        },
        {
          "internalType": "uint256",
          "name": "expiryDate",
          "type": "uint256"
        }
      ],
      "stateMutability": "view",
      "type": "function",
      "constant": true
    },
    {
      "inputs": [
        {
          "internalType": "string",
          "name": "_name",
          "type": "string"
        },
        {
          "internalType": "uint256",
          "name": "_expiryDate",
          "type": "uint256"
        }
      ],
      "name": "addProduct",
      "outputs": [],
      "stateMutability": "nonpayable",
      "type": "function"
    },
    {
      "inputs": [
        {
          "internalType": "uint256",
          "name": "_productId",
          "type": "uint256"
        },
        {
          "internalType": "string",
          "name": "_name",
          "type": "string"
        },
        {
          "internalType": "uint256",
          "name": "_expiryDate",
          "type": "uint256"
        }
      ],
      "name": "editProduct",
      "outputs": [],
      "stateMutability": "nonpayable",
      "type": "function"
    },
    {
      "inputs": [
        {
          "internalType": "uint256",
          "name": "_productId",
          "type": "uint256"
        },
        {
          "internalType": "address",
          "name": "_newOwner",
          "type": "address"
        }
      ],
      "name": "transferProduct",
      "outputs": [],
      "stateMutability": "nonpayable",
      "type": "function"
    },
    {
      "inputs": [
        {
          "internalType": "uint256",
          "name": "_productId",
          "type": "uint256"
        }
      ],
      "name": "checkExpiry",
      "outputs": [],
      "stateMutability": "nonpayable",
      "type": "function"
    },
    {
      "inputs": [
        {
          "internalType": "uint256",
          "name": "_productId",
          "type": "uint256"
        }
      ],
      "name": "deleteProduct",
      "outputs": [],
      "stateMutability": "nonpayable",
      "type": "function"
    }
  ],
  "bytecode": "0x608060405234801561001057600080fd5b50611d96806100206000396000f3fe608060405234801561001057600080fd5b50600436106100885760003560e01c8063e0f6ef871161005b578063e0f6ef8714610127578063e43059e514610145578063e4357cd714610161578063ed90c7b71461017d57610088565b80633d5278831461008d5780637acc0b20146100be578063a575b6c5146100ef578063b15247d91461010b575b600080fd5b6100a760048036038101906100a29190611563565b610199565b6040516100b5929190611912565b60405180910390f35b6100d860048036038101906100d391906115f3565b610262565b6040516100e6929190611912565b60405180910390f35b61010960048036038101906101049190611658565b61030e565b005b6101256004803603810190610120919061159f565b610723565b005b61012f610877565b60405161013c91906119a2565b60405180910390f35b61015f600480360381019061015a919061161c565b61087d565b005b61017b600480360381019061017691906115f3565b610cb1565b005b610197600480360381019061019291906115f3565b610da7565b005b600160205281600052604060002081815481106101b557600080fd5b9060005260206000209060020201600091509150508060000180546101d990611c19565b80601f016020809104026020016040519081016040528092919081815260200182805461020590611c19565b80156102525780601f1061022757610100808354040283529160200191610252565b820191906000526020600020905b81548152906001019060200180831161023557829003601f168201915b5050505050908060010154905082565b600060205280600052604060002060009150905080600001805461028590611c19565b80601f01602080910402602001604051908101604052809291908181526020018280546102b190611c19565b80156102fe5780601f106102d3576101008083540402835291602001916102fe565b820191906000526020600020905b8154815290600101906020018083116102e157829003601f168201915b5050505050908060010154905082565b60008311801561032057506002548311155b61035f576040517f08c379a000000000000000000000000000000000000000000000000000000000815260040161035690611942565b60405180910390fd5b600080600085815260200190815260200160002090506000805b600160003373ffffffffffffffffffffffffffffffffffffffff1673ffffffffffffffffffffffffffffffffffffffff1681526020019081526020016000208054905081101561067e57826000016040516020016103d791906118fb565b60405160208183030381529060405280519060200120600160003373ffffffffffffffffffffffffffffffffffffffff1673ffffffffffffffffffffffffffffffffffffffff1681526020019081526020016000208281548110610464577f4e487b7100000000000000000000000000000000000000000000000000000000600052603260045260246000fd5b906000526020600020906002020160000160405160200161048591906118fb565b6040516020818303038152906040528051906020012014801561053357508260010154600160003373ffffffffffffffffffffffffffffffffffffffff1673ffffffffffffffffffffffffffffffffffffffff168152602001908152602001600020828154811061051f577f4e487b7100000000000000000000000000000000000000000000000000000000600052603260045260246000fd5b906000526020600020906002020160010154145b1561066b5784600160003373ffffffffffffffffffffffffffffffffffffffff1673ffffffffffffffffffffffffffffffffffffffff16815260200190815260200160002082815481106105b0577f4e487b7100000000000000000000000000000000000000000000000000000000600052603260045260246000fd5b906000526020600020906002020160000190805190602001906105d4929190611361565b5083600160003373ffffffffffffffffffffffffffffffffffffffff1673ffffffffffffffffffffffffffffffffffffffff168152602001908152602001600020828154811061064d577f4e487b7100000000000000000000000000000000000000000000000000000000600052603260045260246000fd5b9060005260206000209060020201600101819055506001915061067e565b808061067690611c4b565b915050610379565b50806106bf576040517f08c379a00000000000000000000000000000000000000000000000000000000081526004016106b690611962565b60405180910390fd5b838260000190805190602001906106d7929190611361565b508282600101819055507f769533739396ed8f6057decc219e56dc76532a931f14a4f8940c0c507d3e8460858585604051610714939291906119f4565b60405180910390a15050505050565b6002600081548092919061073690611c4b565b919050555060405180604001604052808381526020018281525060008060025481526020019081526020016000206000820151816000019080519060200190610780929190611361565b5060208201518160010155905050600160003373ffffffffffffffffffffffffffffffffffffffff1673ffffffffffffffffffffffffffffffffffffffff16815260200190815260200160002060405180604001604052808481526020018381525090806001815401808255809150506001900390600052602060002090600202016000909190919091506000820151816000019080519060200190610827929190611361565b506020820151816001015550507f52402cafb2ecec722b103e8f203f83362148c168659dc96678c2c6850d12dd9f60025483833360405161086b9493929190611a32565b60405180910390a15050565b60025481565b60008211801561088f57506002548211155b6108ce576040517f08c379a00000000000000000000000000000000000000000000000000000000081526004016108c590611942565b60405180910390fd5b60008060008481526020019081526020016000209050600160003373ffffffffffffffffffffffffffffffffffffffff1673ffffffffffffffffffffffffffffffffffffffff16815260200190815260200160002060008154811061095c577f4e487b7100000000000000000000000000000000000000000000000000000000600052603260045260246000fd5b906000526020600020906002020160000160405160200161097d91906118fb565b60405160208183030381529060405280519060200120816000016040516020016109a791906118fb565b60405160208183030381529060405280519060200120148015610a565750600160003373ffffffffffffffffffffffffffffffffffffffff1673ffffffffffffffffffffffffffffffffffffffff168152602001908152602001600020600081548110610a3d577f4e487b7100000000000000000000000000000000000000000000000000000000600052603260045260246000fd5b9060005260206000209060020201600101548160010154145b610a95576040517f08c379a0000000000000000000000000000000000000000000000000000000008152600401610a8c90611962565b60405180910390fd5b600160008373ffffffffffffffffffffffffffffffffffffffff1673ffffffffffffffffffffffffffffffffffffffff1681526020019081526020016000208190806001815401808255809150506001900390600052602060002090600202016000909190919091506000820181600001908054610b1290611c19565b610b1d9291906113e7565b50600182015481600101555050600160003373ffffffffffffffffffffffffffffffffffffffff1673ffffffffffffffffffffffffffffffffffffffff168152602001908152602001600020600081548110610ba2577f4e487b7100000000000000000000000000000000000000000000000000000000600052603260045260246000fd5b906000526020600020906002020160008082016000610bc19190611474565b60018201600090555050600160003373ffffffffffffffffffffffffffffffffffffffff1673ffffffffffffffffffffffffffffffffffffffff168152602001908152602001600020805480610c40577f4e487b7100000000000000000000000000000000000000000000000000000000600052603160045260246000fd5b600190038181906000526020600020906002020160008082016000610c659190611474565b6001820160009055505090557fcef86d37ba3dc1d682967cde44d8050488734bf53166725b220b4d2e515e9e93833384604051610ca4939291906119bd565b60405180910390a1505050565b600081118015610cc357506002548111155b610d02576040517f08c379a0000000000000000000000000000000000000000000000000000000008152600401610cf990611942565b60405180910390fd5b600080600083815260200190815260200160002090508060010154421015610d5f576040517f08c379a0000000000000000000000000000000000000000000000000000000008152600401610d5690611982565b60405180910390fd5b7feabddbaefc8037afb77abd564192fb668d8337900b5c7e6a500d0896864048618282600001836001015433604051610d9b9493929190611a7e565b60405180910390a15050565b600081118015610db957506002548111155b610df8576040517f08c379a0000000000000000000000000000000000000000000000000000000008152600401610def90611942565b60405180910390fd5b600080600083815260200190815260200160002090506000805b600160003373ffffffffffffffffffffffffffffffffffffffff1673ffffffffffffffffffffffffffffffffffffffff168152602001908152602001600020805490508110156112b75782600001604051602001610e7091906118fb565b60405160208183030381529060405280519060200120600160003373ffffffffffffffffffffffffffffffffffffffff1673ffffffffffffffffffffffffffffffffffffffff1681526020019081526020016000208281548110610efd577f4e487b7100000000000000000000000000000000000000000000000000000000600052603260045260246000fd5b9060005260206000209060020201600001604051602001610f1e91906118fb565b60405160208183030381529060405280519060200120148015610fcc57508260010154600160003373ffffffffffffffffffffffffffffffffffffffff1673ffffffffffffffffffffffffffffffffffffffff1681526020019081526020016000208281548110610fb8577f4e487b7100000000000000000000000000000000000000000000000000000000600052603260045260246000fd5b906000526020600020906002020160010154145b156112a457600160003373ffffffffffffffffffffffffffffffffffffffff1673ffffffffffffffffffffffffffffffffffffffff1681526020019081526020016000208181548110611048577f4e487b7100000000000000000000000000000000000000000000000000000000600052603260045260246000fd5b9060005260206000209060020201600080820160006110679190611474565b60018201600090555050600160003373ffffffffffffffffffffffffffffffffffffffff1673ffffffffffffffffffffffffffffffffffffffff16815260200190815260200160002060018060003373ffffffffffffffffffffffffffffffffffffffff1673ffffffffffffffffffffffffffffffffffffffff168152602001908152602001600020805490506110fe9190611b67565b81548110611135577f4e487b7100000000000000000000000000000000000000000000000000000000600052603260045260246000fd5b9060005260206000209060020201600160003373ffffffffffffffffffffffffffffffffffffffff1673ffffffffffffffffffffffffffffffffffffffff16815260200190815260200160002082815481106111ba577f4e487b7100000000000000000000000000000000000000000000000000000000600052603260045260246000fd5b906000526020600020906002020160008201816000019080546111dc90611c19565b6111e79291906113e7565b5060018201548160010155905050600160003373ffffffffffffffffffffffffffffffffffffffff1673ffffffffffffffffffffffffffffffffffffffff16815260200190815260200160002080548061126a577f4e487b7100000000000000000000000000000000000000000000000000000000600052603160045260246000fd5b60019003818190600052602060002090600202016000808201600061128f9190611474565b600182016000905550509055600191506112b7565b80806112af90611c4b565b915050610e12565b50806112f8576040517f08c379a00000000000000000000000000000000000000000000000000000000081526004016112ef90611962565b60405180910390fd5b6000808481526020019081526020016000206000808201600061131b9190611474565b600182016000905550507fc341cf326465fe622f86c468249e8c0cb03ed23ba376a6a34863a1374ac7d7698360405161135491906119a2565b60405180910390a1505050565b82805461136d90611c19565b90600052602060002090601f01602090048101928261138f57600085556113d6565b82601f106113a857805160ff19168380011785556113d6565b828001600101855582156113d6579182015b828111156113d55782518255916020019190600101906113ba565b5b5090506113e391906114b4565b5090565b8280546113f390611c19565b90600052602060002090601f0160209004810192826114155760008555611463565b82601f106114265780548555611463565b8280016001018555821561146357600052602060002091601f016020900482015b82811115611462578254825591600101919060010190611447565b5b50905061147091906114b4565b5090565b50805461148090611c19565b6000825580601f1061149257506114b1565b601f0160209004906000526020600020908101906114b091906114b4565b5b50565b5b808211156114cd5760008160009055506001016114b5565b5090565b60006114e46114df84611afb565b611aca565b9050828152602081018484840111156114fc57600080fd5b611507848285611bd7565b509392505050565b60008135905061151e81611d32565b92915050565b600082601f83011261153557600080fd5b81356115458482602086016114d1565b91505092915050565b60008135905061155d81611d49565b92915050565b6000806040838503121561157657600080fd5b60006115848582860161150f565b92505060206115958582860161154e565b9150509250929050565b600080604083850312156115b257600080fd5b600083013567ffffffffffffffff8111156115cc57600080fd5b6115d885828601611524565b92505060206115e98582860161154e565b9150509250929050565b60006020828403121561160557600080fd5b60006116138482850161154e565b91505092915050565b6000806040838503121561162f57600080fd5b600061163d8582860161154e565b925050602061164e8582860161150f565b9150509250929050565b60008060006060848603121561166d57600080fd5b600061167b8682870161154e565b935050602084013567ffffffffffffffff81111561169857600080fd5b6116a486828701611524565b92505060406116b58682870161154e565b9150509250925092565b6116c881611b9b565b82525050565b60006116d982611b40565b6116e38185611b4b565b93506116f3818560208601611be6565b6116fc81611d21565b840191505092915050565b6000815461171481611c19565b61171e8186611b4b565b94506001821660008114611739576001811461174b5761177e565b60ff198316865260208601935061177e565b61175485611b2b565b60005b8381101561177657815481890152600182019150602081019050611757565b808801955050505b50505092915050565b6000815461179481611c19565b61179e8186611b5c565b945060018216600081146117b957600181146117ca576117fd565b60ff198316865281860193506117fd565b6117d385611b2b565b60005b838110156117f5578154818901526001820191506020810190506117d6565b838801955050505b50505092915050565b6000611813601783611b4b565b91507f50726f6475637420646f6573206e6f742065786973742e0000000000000000006000830152602082019050919050565b6000611853602183611b4b565b91507f50726f64756374206e6f7420666f756e6420696e20757365722773206c69737460008301527f2e000000000000000000000000000000000000000000000000000000000000006020830152604082019050919050565b60006118b9601c83611b4b565b91507f50726f6475637420686173206e6f742065787069726564207965742e000000006000830152602082019050919050565b6118f581611bcd565b82525050565b60006119078284611787565b915081905092915050565b6000604082019050818103600083015261192c81856116ce565b905061193b60208301846118ec565b9392505050565b6000602082019050818103600083015261195b81611806565b9050919050565b6000602082019050818103600083015261197b81611846565b9050919050565b6000602082019050818103600083015261199b816118ac565b9050919050565b60006020820190506119b760008301846118ec565b92915050565b60006060820190506119d260008301866118ec565b6119df60208301856116bf565b6119ec60408301846116bf565b949350505050565b6000606082019050611a0960008301866118ec565b8181036020830152611a1b81856116ce565b9050611a2a60408301846118ec565b949350505050565b6000608082019050611a4760008301876118ec565b8181036020830152611a5981866116ce565b9050611a6860408301856118ec565b611a7560608301846116bf565b95945050505050565b6000608082019050611a9360008301876118ec565b8181036020830152611aa58186611707565b9050611ab460408301856118ec565b611ac160608301846116bf565b95945050505050565b6000604051905081810181811067ffffffffffffffff82111715611af157611af0611cf2565b5b8060405250919050565b600067ffffffffffffffff821115611b1657611b15611cf2565b5b601f19601f8301169050602081019050919050565b60008190508160005260206000209050919050565b600081519050919050565b600082825260208201905092915050565b600081905092915050565b6000611b7282611bcd565b9150611b7d83611bcd565b925082821015611b9057611b8f611c94565b5b828203905092915050565b6000611ba682611bad565b9050919050565b600073ffffffffffffffffffffffffffffffffffffffff82169050919050565b6000819050919050565b82818337600083830152505050565b60005b83811015611c04578082015181840152602081019050611be9565b83811115611c13576000848401525b50505050565b60006002820490506001821680611c3157607f821691505b60208210811415611c4557611c44611cc3565b5b50919050565b6000611c5682611bcd565b91507fffffffffffffffffffffffffffffffffffffffffffffffffffffffffffffffff821415611c8957611c88611c94565b5b600182019050919050565b7f4e487b7100000000000000000000000000000000000000000000000000000000600052601160045260246000fd5b7f4e487b7100000000000000000000000000000000000000000000000000000000600052602260045260246000fd5b7f4e487b7100000000000000000000000000000000000000000000000000000000600052604160045260246000fd5b6000601f19601f8301169050919050565b611d3b81611b9b565b8114611d4657600080fd5b50565b611d5281611bcd565b8114611d5d57600080fd5b5056fea264697066735822122018caa3a6a01e646a7292a427d0a13dcd890096167bf929e5aafc36ce8180ee6664736f6c63430008000033",
  "immutableReferences": {},
  "source": "// SPDX-License-Identifier: MIT\r\npragma solidity ^0.8.0;\r\n\r\ncontract ExpiryExpert {\r\n    struct Product {\r\n        string name;\r\n        uint256 expiryDate; // Unix timestamp of expiry date\r\n    }\r\n\r\n    mapping(uint256 => Product) public products;\r\n    mapping(address => Product[]) public userProducts;\r\n    uint256 public productCount;\r\n\r\n    event ProductAdded(uint256 productId, string name, uint256 expiryDate, address owner);\r\n    event ProductEdited(uint256 productId, string name, uint256 expiryDate);\r\n    event ProductTransferred(uint256 productId, address from, address to);\r\n    event ProductExpired(uint256 productId, string name, uint256 expiryDate, address owner);\r\n    event ProductDeleted(uint256 productId);\r\n\r\n    function addProduct(string memory _name, uint256 _expiryDate) public {\r\n        productCount++;\r\n        products[productCount] = Product(_name, _expiryDate);\r\n        userProducts[msg.sender].push(Product(_name, _expiryDate));\r\n        emit ProductAdded(productCount, _name, _expiryDate, msg.sender);\r\n    }\r\n\r\n    function editProduct(uint256 _productId, string memory _name, uint256 _expiryDate) public {\r\n        require(_productId > 0 && _productId <= productCount, \"Product does not exist.\");\r\n        Product storage product = products[_productId];\r\n\r\n        bool found = false;\r\n        for (uint256 i = 0; i < userProducts[msg.sender].length; i++) {\r\n            if (\r\n                keccak256(abi.encodePacked(userProducts[msg.sender][i].name)) == keccak256(abi.encodePacked(product.name)) &&\r\n                userProducts[msg.sender][i].expiryDate == product.expiryDate\r\n            ) {\r\n                userProducts[msg.sender][i].name = _name;\r\n                userProducts[msg.sender][i].expiryDate = _expiryDate;\r\n                found = true;\r\n                break;\r\n            }\r\n        }\r\n\r\n        require(found, \"Product not found in user's list.\");\r\n        product.name = _name;\r\n        product.expiryDate = _expiryDate;\r\n        emit ProductEdited(_productId, _name, _expiryDate);\r\n    }\r\n\r\n    function transferProduct(uint256 _productId, address _newOwner) public {\r\n        require(_productId > 0 && _productId <= productCount, \"Product does not exist.\");\r\n        Product storage product = products[_productId];\r\n        require(\r\n            keccak256(abi.encodePacked(product.name)) == keccak256(abi.encodePacked(userProducts[msg.sender][0].name)) &&\r\n            product.expiryDate == userProducts[msg.sender][0].expiryDate,\r\n            \"Product not found in user's list.\"\r\n        );\r\n\r\n        userProducts[_newOwner].push(product);\r\n        delete userProducts[msg.sender][0];\r\n        userProducts[msg.sender].pop();\r\n        emit ProductTransferred(_productId, msg.sender, _newOwner);\r\n    }\r\n\r\n    function checkExpiry(uint256 _productId) public {\r\n        require(_productId > 0 && _productId <= productCount, \"Product does not exist.\");\r\n        Product storage product = products[_productId];\r\n        require(block.timestamp >= product.expiryDate, \"Product has not expired yet.\");\r\n        emit ProductExpired(_productId, product.name, product.expiryDate, msg.sender);\r\n    }\r\n\r\n    function deleteProduct(uint256 _productId) public {\r\n        require(_productId > 0 && _productId <= productCount, \"Product does not exist.\");\r\n        Product storage product = products[_productId];\r\n\r\n        bool found = false;\r\n        for (uint256 i = 0; i < userProducts[msg.sender].length; i++) {\r\n            if (\r\n                keccak256(abi.encodePacked(userProducts[msg.sender][i].name)) == keccak256(abi.encodePacked(product.name)) &&\r\n                userProducts[msg.sender][i].expiryDate == product.expiryDate\r\n            ) {\r\n                delete userProducts[msg.sender][i];\r\n                userProducts[msg.sender][i] = userProducts[msg.sender][userProducts[msg.sender].length - 1];\r\n                userProducts[msg.sender].pop();\r\n                found = true;\r\n                break;\r\n            }\r\n        }\r\n\r\n        require(found, \"Product not found in user's list.\");\r\n        delete products[_productId];\r\n        emit ProductDeleted(_productId);\r\n    }\r\n}\r\n",
  "sourcePath": "C:\\Expiry\\Blockchain\\expiry-expert-blockchain\\contracts\\ExpiryExpert.sol",
  "compiler": {
    "name": "solc",
    "version": "0.8.0+commit.c7dfd78e.Emscripten.clang"
  },
  "schemaVersion": "3.4.16",
  "updatedAt": "2024-07-29T19:28:24.482Z",
  "networkType": "ethereum",
  "devdoc": {
    "kind": "dev",
    "methods": {},
    "version": 1
  },
  "userdoc": {
    "kind": "user",
    "methods": {},
    "version": 1
  }
}